{
  "contractName": "MyNFT",
  "abi": [
    {
      "inputs": [],
      "stateMutability": "nonpayable",
      "type": "constructor"
    },
    {
      "anonymous": false,
      "inputs": [
        {
          "indexed": true,
          "internalType": "address",
          "name": "owner",
          "type": "address"
        },
        {
          "indexed": true,
          "internalType": "address",
          "name": "approved",
          "type": "address"
        },
        {
          "indexed": true,
          "internalType": "uint256",
          "name": "tokenId",
          "type": "uint256"
        }
      ],
      "name": "Approval",
      "type": "event"
    },
    {
      "anonymous": false,
      "inputs": [
        {
          "indexed": true,
          "internalType": "address",
          "name": "owner",
          "type": "address"
        },
        {
          "indexed": true,
          "internalType": "address",
          "name": "operator",
          "type": "address"
        },
        {
          "indexed": false,
          "internalType": "bool",
          "name": "approved",
          "type": "bool"
        }
      ],
      "name": "ApprovalForAll",
      "type": "event"
    },
    {
      "anonymous": false,
      "inputs": [
        {
          "indexed": false,
          "internalType": "address",
          "name": "recipient",
          "type": "address"
        },
        {
          "indexed": false,
          "internalType": "uint256",
          "name": "tokenId",
          "type": "uint256"
        },
        {
          "indexed": false,
          "internalType": "string",
          "name": "tokenURI",
          "type": "string"
        }
      ],
      "name": "Minted",
      "type": "event"
    },
    {
      "anonymous": false,
      "inputs": [
        {
          "indexed": true,
          "internalType": "address",
          "name": "previousOwner",
          "type": "address"
        },
        {
          "indexed": true,
          "internalType": "address",
          "name": "newOwner",
          "type": "address"
        }
      ],
      "name": "OwnershipTransferred",
      "type": "event"
    },
    {
      "anonymous": false,
      "inputs": [
        {
          "indexed": true,
          "internalType": "address",
          "name": "from",
          "type": "address"
        },
        {
          "indexed": true,
          "internalType": "address",
          "name": "to",
          "type": "address"
        },
        {
          "indexed": true,
          "internalType": "uint256",
          "name": "tokenId",
          "type": "uint256"
        }
      ],
      "name": "Transfer",
      "type": "event"
    },
    {
      "inputs": [
        {
          "internalType": "address",
          "name": "to",
          "type": "address"
        },
        {
          "internalType": "uint256",
          "name": "tokenId",
          "type": "uint256"
        }
      ],
      "name": "approve",
      "outputs": [],
      "stateMutability": "nonpayable",
      "type": "function"
    },
    {
      "inputs": [
        {
          "internalType": "address",
          "name": "owner",
          "type": "address"
        }
      ],
      "name": "balanceOf",
      "outputs": [
        {
          "internalType": "uint256",
          "name": "",
          "type": "uint256"
        }
      ],
      "stateMutability": "view",
      "type": "function",
      "constant": true
    },
    {
      "inputs": [
        {
          "internalType": "uint256",
          "name": "tokenId",
          "type": "uint256"
        }
      ],
      "name": "getApproved",
      "outputs": [
        {
          "internalType": "address",
          "name": "",
          "type": "address"
        }
      ],
      "stateMutability": "view",
      "type": "function",
      "constant": true
    },
    {
      "inputs": [
        {
          "internalType": "address",
          "name": "owner",
          "type": "address"
        },
        {
          "internalType": "address",
          "name": "operator",
          "type": "address"
        }
      ],
      "name": "isApprovedForAll",
      "outputs": [
        {
          "internalType": "bool",
          "name": "",
          "type": "bool"
        }
      ],
      "stateMutability": "view",
      "type": "function",
      "constant": true
    },
    {
      "inputs": [],
      "name": "name",
      "outputs": [
        {
          "internalType": "string",
          "name": "",
          "type": "string"
        }
      ],
      "stateMutability": "view",
      "type": "function",
      "constant": true
    },
    {
      "inputs": [],
      "name": "nextTokenId",
      "outputs": [
        {
          "internalType": "uint256",
          "name": "",
          "type": "uint256"
        }
      ],
      "stateMutability": "view",
      "type": "function",
      "constant": true
    },
    {
      "inputs": [],
      "name": "owner",
      "outputs": [
        {
          "internalType": "address",
          "name": "",
          "type": "address"
        }
      ],
      "stateMutability": "view",
      "type": "function",
      "constant": true
    },
    {
      "inputs": [
        {
          "internalType": "uint256",
          "name": "tokenId",
          "type": "uint256"
        }
      ],
      "name": "ownerOf",
      "outputs": [
        {
          "internalType": "address",
          "name": "",
          "type": "address"
        }
      ],
      "stateMutability": "view",
      "type": "function",
      "constant": true
    },
    {
      "inputs": [],
      "name": "renounceOwnership",
      "outputs": [],
      "stateMutability": "nonpayable",
      "type": "function"
    },
    {
      "inputs": [
        {
          "internalType": "address",
          "name": "from",
          "type": "address"
        },
        {
          "internalType": "address",
          "name": "to",
          "type": "address"
        },
        {
          "internalType": "uint256",
          "name": "tokenId",
          "type": "uint256"
        }
      ],
      "name": "safeTransferFrom",
      "outputs": [],
      "stateMutability": "nonpayable",
      "type": "function"
    },
    {
      "inputs": [
        {
          "internalType": "address",
          "name": "from",
          "type": "address"
        },
        {
          "internalType": "address",
          "name": "to",
          "type": "address"
        },
        {
          "internalType": "uint256",
          "name": "tokenId",
          "type": "uint256"
        },
        {
          "internalType": "bytes",
          "name": "_data",
          "type": "bytes"
        }
      ],
      "name": "safeTransferFrom",
      "outputs": [],
      "stateMutability": "nonpayable",
      "type": "function"
    },
    {
      "inputs": [
        {
          "internalType": "address",
          "name": "operator",
          "type": "address"
        },
        {
          "internalType": "bool",
          "name": "approved",
          "type": "bool"
        }
      ],
      "name": "setApprovalForAll",
      "outputs": [],
      "stateMutability": "nonpayable",
      "type": "function"
    },
    {
      "inputs": [],
      "name": "symbol",
      "outputs": [
        {
          "internalType": "string",
          "name": "",
          "type": "string"
        }
      ],
      "stateMutability": "view",
      "type": "function",
      "constant": true
    },
    {
      "inputs": [
        {
          "internalType": "uint256",
          "name": "index",
          "type": "uint256"
        }
      ],
      "name": "tokenByIndex",
      "outputs": [
        {
          "internalType": "uint256",
          "name": "",
          "type": "uint256"
        }
      ],
      "stateMutability": "view",
      "type": "function",
      "constant": true
    },
    {
      "inputs": [
        {
          "internalType": "address",
          "name": "owner",
          "type": "address"
        },
        {
          "internalType": "uint256",
          "name": "index",
          "type": "uint256"
        }
      ],
      "name": "tokenOfOwnerByIndex",
      "outputs": [
        {
          "internalType": "uint256",
          "name": "",
          "type": "uint256"
        }
      ],
      "stateMutability": "view",
      "type": "function",
      "constant": true
    },
    {
      "inputs": [],
      "name": "totalSupply",
      "outputs": [
        {
          "internalType": "uint256",
          "name": "",
          "type": "uint256"
        }
      ],
      "stateMutability": "view",
      "type": "function",
      "constant": true
    },
    {
      "inputs": [
        {
          "internalType": "address",
          "name": "from",
          "type": "address"
        },
        {
          "internalType": "address",
          "name": "to",
          "type": "address"
        },
        {
          "internalType": "uint256",
          "name": "tokenId",
          "type": "uint256"
        }
      ],
      "name": "transferFrom",
      "outputs": [],
      "stateMutability": "nonpayable",
      "type": "function"
    },
    {
      "inputs": [
        {
          "internalType": "address",
          "name": "newOwner",
          "type": "address"
        }
      ],
      "name": "transferOwnership",
      "outputs": [],
      "stateMutability": "nonpayable",
      "type": "function"
    },
    {
      "inputs": [
        {
          "internalType": "address",
          "name": "recipient",
          "type": "address"
        },
        {
          "internalType": "string",
          "name": "_tokenURI",
          "type": "string"
        }
      ],
      "name": "mint",
      "outputs": [],
      "stateMutability": "nonpayable",
      "type": "function"
    },
    {
      "inputs": [
        {
          "internalType": "address",
          "name": "owner",
          "type": "address"
        }
      ],
      "name": "tokensOfOwner",
      "outputs": [
        {
          "internalType": "uint256[]",
          "name": "",
          "type": "uint256[]"
        }
      ],
      "stateMutability": "view",
      "type": "function",
      "constant": true
    },
    {
      "inputs": [
        {
          "internalType": "uint256",
          "name": "tokenId",
          "type": "uint256"
        }
      ],
      "name": "tokenURI",
      "outputs": [
        {
          "internalType": "string",
          "name": "",
          "type": "string"
        }
      ],
      "stateMutability": "view",
      "type": "function",
      "constant": true
    },
    {
      "inputs": [
        {
          "internalType": "bytes4",
          "name": "interfaceId",
          "type": "bytes4"
        }
      ],
      "name": "supportsInterface",
      "outputs": [
        {
          "internalType": "bool",
          "name": "",
          "type": "bool"
        }
      ],
      "stateMutability": "view",
      "type": "function",
      "constant": true
    }
  ],
  "bytecode": "0x60806040523480156200001157600080fd5b506040518060400160405280600581526020017f4d794e46540000000000000000000000000000000000000000000000000000008152506040518060400160405280600481526020017f4d4e465400000000000000000000000000000000000000000000000000000000815250816000908051906020019062000096929190620001a6565b508060019080519060200190620000af929190620001a6565b505050620000d2620000c6620000d860201b60201c565b620000e060201b60201c565b620002bb565b600033905090565b6000600b60009054906101000a900473ffffffffffffffffffffffffffffffffffffffff16905081600b60006101000a81548173ffffffffffffffffffffffffffffffffffffffff021916908373ffffffffffffffffffffffffffffffffffffffff1602179055508173ffffffffffffffffffffffffffffffffffffffff168173ffffffffffffffffffffffffffffffffffffffff167f8be0079c531659141344cd1fd0a4f28419497f9722a3daafe3b4186f6b6457e060405160405180910390a35050565b828054620001b49062000256565b90600052602060002090601f016020900481019282620001d8576000855562000224565b82601f10620001f357805160ff191683800117855562000224565b8280016001018555821562000224579182015b828111156200022357825182559160200191906001019062000206565b5b50905062000233919062000237565b5090565b5b808211156200025257600081600090555060010162000238565b5090565b600060028204905060018216806200026f57607f821691505b602082108114156200028657620002856200028c565b5b50919050565b7f4e487b7100000000000000000000000000000000000000000000000000000000600052602260045260246000fd5b613abe80620002cb6000396000f3fe608060405234801561001057600080fd5b50600436106101425760003560e01c8063715018a6116100b8578063a22cb4651161007c578063a22cb4651461038b578063b88d4fde146103a7578063c87b56dd146103c3578063d0def521146103f3578063e985e9c51461040f578063f2fde38b1461043f57610142565b8063715018a6146102f757806375794a3c146103015780638462151c1461031f5780638da5cb5b1461034f57806395d89b411461036d57610142565b806323b872dd1161010a57806323b872dd146101ff5780632f745c591461021b57806342842e0e1461024b5780634f6ccce7146102675780636352211e1461029757806370a08231146102c757610142565b806301ffc9a71461014757806306fdde0314610177578063081812fc14610195578063095ea7b3146101c557806318160ddd146101e1575b600080fd5b610161600480360381019061015c91906127bf565b61045b565b60405161016e9190612d59565b60405180910390f35b61017f61046d565b60405161018c9190612d74565b60405180910390f35b6101af60048036038101906101aa9190612811565b6104ff565b6040516101bc9190612c92565b60405180910390f35b6101df60048036038101906101da9190612783565b610584565b005b6101e961069c565b6040516101f69190613036565b60405180910390f35b61021960048036038101906102149190612629565b6106a9565b005b61023560048036038101906102309190612783565b610709565b6040516102429190613036565b60405180910390f35b61026560048036038101906102609190612629565b6107ae565b005b610281600480360381019061027c9190612811565b6107ce565b60405161028e9190613036565b60405180910390f35b6102b160048036038101906102ac9190612811565b610865565b6040516102be9190612c92565b60405180910390f35b6102e160048036038101906102dc91906125c4565b610917565b6040516102ee9190613036565b60405180910390f35b6102ff6109cf565b005b610309610a57565b6040516103169190613036565b60405180910390f35b610339600480360381019061033491906125c4565b610a5d565b6040516103469190612d37565b60405180910390f35b610357610b57565b6040516103649190612c92565b60405180910390f35b610375610b81565b6040516103829190612d74565b60405180910390f35b6103a560048036038101906103a091906126f3565b610c13565b005b6103c160048036038101906103bc9190612678565b610d94565b005b6103dd60048036038101906103d89190612811565b610df6565b6040516103ea9190612d74565b60405180910390f35b61040d6004803603810190610408919061272f565b610e50565b005b610429600480360381019061042491906125ed565b610ec3565b6040516104369190612d59565b60405180910390f35b610459600480360381019061045491906125c4565b610f57565b005b60006104668261104f565b9050919050565b60606000805461047c906132c5565b80601f01602080910402602001604051908101604052809291908181526020018280546104a8906132c5565b80156104f55780601f106104ca576101008083540402835291602001916104f5565b820191906000526020600020905b8154815290600101906020018083116104d857829003601f168201915b5050505050905090565b600061050a826110c9565b610549576040517f08c379a000000000000000000000000000000000000000000000000000000000815260040161054090612f56565b60405180910390fd5b6004600083815260200190815260200160002060009054906101000a900473ffffffffffffffffffffffffffffffffffffffff169050919050565b600061058f82610865565b90508073ffffffffffffffffffffffffffffffffffffffff168373ffffffffffffffffffffffffffffffffffffffff161415610600576040517f08c379a00000000000000000000000000000000000000000000000000000000081526004016105f790612fd6565b60405180910390fd5b8073ffffffffffffffffffffffffffffffffffffffff1661061f611135565b73ffffffffffffffffffffffffffffffffffffffff16148061064e575061064d81610648611135565b610ec3565b5b61068d576040517f08c379a000000000000000000000000000000000000000000000000000000000815260040161068490612e76565b60405180910390fd5b610697838361113d565b505050565b6000600980549050905090565b6106ba6106b4611135565b826111f6565b6106f9576040517f08c379a00000000000000000000000000000000000000000000000000000000081526004016106f090612ff6565b60405180910390fd5b6107048383836112d4565b505050565b600061071483610917565b8210610755576040517f08c379a000000000000000000000000000000000000000000000000000000000815260040161074c90612d96565b60405180910390fd5b600760008473ffffffffffffffffffffffffffffffffffffffff1673ffffffffffffffffffffffffffffffffffffffff168152602001908152602001600020600083815260200190815260200160002054905092915050565b6107c983838360405180602001604052806000815250610d94565b505050565b60006107d861069c565b8210610819576040517f08c379a000000000000000000000000000000000000000000000000000000000815260040161081090613016565b60405180910390fd5b60098281548110610853577f4e487b7100000000000000000000000000000000000000000000000000000000600052603260045260246000fd5b90600052602060002001549050919050565b6000806002600084815260200190815260200160002060009054906101000a900473ffffffffffffffffffffffffffffffffffffffff169050600073ffffffffffffffffffffffffffffffffffffffff168173ffffffffffffffffffffffffffffffffffffffff16141561090e576040517f08c379a000000000000000000000000000000000000000000000000000000000815260040161090590612eb6565b60405180910390fd5b80915050919050565b60008073ffffffffffffffffffffffffffffffffffffffff168273ffffffffffffffffffffffffffffffffffffffff161415610988576040517f08c379a000000000000000000000000000000000000000000000000000000000815260040161097f90612e96565b60405180910390fd5b600360008373ffffffffffffffffffffffffffffffffffffffff1673ffffffffffffffffffffffffffffffffffffffff168152602001908152602001600020549050919050565b6109d7611135565b73ffffffffffffffffffffffffffffffffffffffff166109f5610b57565b73ffffffffffffffffffffffffffffffffffffffff1614610a4b576040517f08c379a0000000000000000000000000000000000000000000000000000000008152600401610a4290612f76565b60405180910390fd5b610a556000611530565b565b600c5481565b60606000610a6a83610917565b905060008167ffffffffffffffff811115610aae577f4e487b7100000000000000000000000000000000000000000000000000000000600052604160045260246000fd5b604051908082528060200260200182016040528015610adc5781602001602082028036833780820191505090505b50905060005b82811015610b4c57610af48582610709565b828281518110610b2d577f4e487b7100000000000000000000000000000000000000000000000000000000600052603260045260246000fd5b6020026020010181815250508080610b4490613328565b915050610ae2565b508092505050919050565b6000600b60009054906101000a900473ffffffffffffffffffffffffffffffffffffffff16905090565b606060018054610b90906132c5565b80601f0160208091040260200160405190810160405280929190818152602001828054610bbc906132c5565b8015610c095780601f10610bde57610100808354040283529160200191610c09565b820191906000526020600020905b815481529060010190602001808311610bec57829003601f168201915b5050505050905090565b610c1b611135565b73ffffffffffffffffffffffffffffffffffffffff168273ffffffffffffffffffffffffffffffffffffffff161415610c89576040517f08c379a0000000000000000000000000000000000000000000000000000000008152600401610c8090612e36565b60405180910390fd5b8060056000610c96611135565b73ffffffffffffffffffffffffffffffffffffffff1673ffffffffffffffffffffffffffffffffffffffff16815260200190815260200160002060008473ffffffffffffffffffffffffffffffffffffffff1673ffffffffffffffffffffffffffffffffffffffff16815260200190815260200160002060006101000a81548160ff0219169083151502179055508173ffffffffffffffffffffffffffffffffffffffff16610d43611135565b73ffffffffffffffffffffffffffffffffffffffff167f17307eab39ab6107e8899845ad3d59bd9653f200f220920489ca2b5937696c3183604051610d889190612d59565b60405180910390a35050565b610da5610d9f611135565b836111f6565b610de4576040517f08c379a0000000000000000000000000000000000000000000000000000000008152600401610ddb90612ff6565b60405180910390fd5b610df0848484846115f6565b50505050565b6060610e01826110c9565b610e40576040517f08c379a0000000000000000000000000000000000000000000000000000000008152600401610e3790612f16565b60405180910390fd5b610e4982611652565b9050919050565b6000600c549050600c6000815480929190610e6a90613328565b9190505550610e7983826117a4565b610e838183611972565b7fe7cd4ce7f2a465edc730269a1305e8a48bad821e8fb7e152ec413829c01a53c4838284604051610eb693929190612cf9565b60405180910390a1505050565b6000600560008473ffffffffffffffffffffffffffffffffffffffff1673ffffffffffffffffffffffffffffffffffffffff16815260200190815260200160002060008373ffffffffffffffffffffffffffffffffffffffff1673ffffffffffffffffffffffffffffffffffffffff16815260200190815260200160002060009054906101000a900460ff16905092915050565b610f5f611135565b73ffffffffffffffffffffffffffffffffffffffff16610f7d610b57565b73ffffffffffffffffffffffffffffffffffffffff1614610fd3576040517f08c379a0000000000000000000000000000000000000000000000000000000008152600401610fca90612f76565b60405180910390fd5b600073ffffffffffffffffffffffffffffffffffffffff168173ffffffffffffffffffffffffffffffffffffffff161415611043576040517f08c379a000000000000000000000000000000000000000000000000000000000815260040161103a90612dd6565b60405180910390fd5b61104c81611530565b50565b60007f780e9d63000000000000000000000000000000000000000000000000000000007bffffffffffffffffffffffffffffffffffffffffffffffffffffffff1916827bffffffffffffffffffffffffffffffffffffffffffffffffffffffff191614806110c257506110c1826119e6565b5b9050919050565b60008073ffffffffffffffffffffffffffffffffffffffff166002600084815260200190815260200160002060009054906101000a900473ffffffffffffffffffffffffffffffffffffffff1673ffffffffffffffffffffffffffffffffffffffff1614159050919050565b600033905090565b816004600083815260200190815260200160002060006101000a81548173ffffffffffffffffffffffffffffffffffffffff021916908373ffffffffffffffffffffffffffffffffffffffff160217905550808273ffffffffffffffffffffffffffffffffffffffff166111b083610865565b73ffffffffffffffffffffffffffffffffffffffff167f8c5be1e5ebec7d5bd14f71427d1e84f3dd0314c0f7b2291e5b200ac8c7c3b92560405160405180910390a45050565b6000611201826110c9565b611240576040517f08c379a000000000000000000000000000000000000000000000000000000000815260040161123790612e56565b60405180910390fd5b600061124b83610865565b90508073ffffffffffffffffffffffffffffffffffffffff168473ffffffffffffffffffffffffffffffffffffffff1614806112ba57508373ffffffffffffffffffffffffffffffffffffffff166112a2846104ff565b73ffffffffffffffffffffffffffffffffffffffff16145b806112cb57506112ca8185610ec3565b5b91505092915050565b8273ffffffffffffffffffffffffffffffffffffffff166112f482610865565b73ffffffffffffffffffffffffffffffffffffffff161461134a576040517f08c379a000000000000000000000000000000000000000000000000000000000815260040161134190612f96565b60405180910390fd5b600073ffffffffffffffffffffffffffffffffffffffff168273ffffffffffffffffffffffffffffffffffffffff1614156113ba576040517f08c379a00000000000000000000000000000000000000000000000000000000081526004016113b190612e16565b60405180910390fd5b6113c5838383611ac8565b6113d060008261113d565b6001600360008573ffffffffffffffffffffffffffffffffffffffff1673ffffffffffffffffffffffffffffffffffffffff168152602001908152602001600020600082825461142091906131db565b925050819055506001600360008473ffffffffffffffffffffffffffffffffffffffff1673ffffffffffffffffffffffffffffffffffffffff16815260200190815260200160002060008282546114779190613154565b92505081905550816002600083815260200190815260200160002060006101000a81548173ffffffffffffffffffffffffffffffffffffffff021916908373ffffffffffffffffffffffffffffffffffffffff160217905550808273ffffffffffffffffffffffffffffffffffffffff168473ffffffffffffffffffffffffffffffffffffffff167fddf252ad1be2c89b69c2b068fc378daa952ba7f163c4a11628f55a4df523b3ef60405160405180910390a4505050565b6000600b60009054906101000a900473ffffffffffffffffffffffffffffffffffffffff16905081600b60006101000a81548173ffffffffffffffffffffffffffffffffffffffff021916908373ffffffffffffffffffffffffffffffffffffffff1602179055508173ffffffffffffffffffffffffffffffffffffffff168173ffffffffffffffffffffffffffffffffffffffff167f8be0079c531659141344cd1fd0a4f28419497f9722a3daafe3b4186f6b6457e060405160405180910390a35050565b6116018484846112d4565b61160d84848484611ad8565b61164c576040517f08c379a000000000000000000000000000000000000000000000000000000000815260040161164390612db6565b60405180910390fd5b50505050565b606061165d826110c9565b61169c576040517f08c379a000000000000000000000000000000000000000000000000000000000815260040161169390612f36565b60405180910390fd5b60006006600084815260200190815260200160002080546116bc906132c5565b80601f01602080910402602001604051908101604052809291908181526020018280546116e8906132c5565b80156117355780601f1061170a57610100808354040283529160200191611735565b820191906000526020600020905b81548152906001019060200180831161171857829003601f168201915b505050505090506000611746611c6f565b905060008151141561175c57819250505061179f565b600082511115611791578082604051602001611779929190612c6e565b6040516020818303038152906040529250505061179f565b61179a84611c86565b925050505b919050565b600073ffffffffffffffffffffffffffffffffffffffff168273ffffffffffffffffffffffffffffffffffffffff161415611814576040517f08c379a000000000000000000000000000000000000000000000000000000000815260040161180b90612ef6565b60405180910390fd5b61181d816110c9565b1561185d576040517f08c379a000000000000000000000000000000000000000000000000000000000815260040161185490612df6565b60405180910390fd5b61186960008383611ac8565b6001600360008473ffffffffffffffffffffffffffffffffffffffff1673ffffffffffffffffffffffffffffffffffffffff16815260200190815260200160002060008282546118b99190613154565b92505081905550816002600083815260200190815260200160002060006101000a81548173ffffffffffffffffffffffffffffffffffffffff021916908373ffffffffffffffffffffffffffffffffffffffff160217905550808273ffffffffffffffffffffffffffffffffffffffff16600073ffffffffffffffffffffffffffffffffffffffff167fddf252ad1be2c89b69c2b068fc378daa952ba7f163c4a11628f55a4df523b3ef60405160405180910390a45050565b61197b826110c9565b6119ba576040517f08c379a00000000000000000000000000000000000000000000000000000000081526004016119b190612ed6565b60405180910390fd5b806006600084815260200190815260200160002090805190602001906119e19291906123e8565b505050565b60007f80ac58cd000000000000000000000000000000000000000000000000000000007bffffffffffffffffffffffffffffffffffffffffffffffffffffffff1916827bffffffffffffffffffffffffffffffffffffffffffffffffffffffff19161480611ab157507f5b5e139f000000000000000000000000000000000000000000000000000000007bffffffffffffffffffffffffffffffffffffffffffffffffffffffff1916827bffffffffffffffffffffffffffffffffffffffffffffffffffffffff1916145b80611ac15750611ac082611d2d565b5b9050919050565b611ad3838383611d97565b505050565b6000611af98473ffffffffffffffffffffffffffffffffffffffff16611eab565b15611c62578373ffffffffffffffffffffffffffffffffffffffff1663150b7a02611b22611135565b8786866040518563ffffffff1660e01b8152600401611b449493929190612cad565b602060405180830381600087803b158015611b5e57600080fd5b505af1925050508015611b8f57506040513d601f19601f82011682018060405250810190611b8c91906127e8565b60015b611c12573d8060008114611bbf576040519150601f19603f3d011682016040523d82523d6000602084013e611bc4565b606091505b50600081511415611c0a576040517f08c379a0000000000000000000000000000000000000000000000000000000008152600401611c0190612db6565b60405180910390fd5b805181602001fd5b63150b7a0260e01b7bffffffffffffffffffffffffffffffffffffffffffffffffffffffff1916817bffffffffffffffffffffffffffffffffffffffffffffffffffffffff191614915050611c67565b600190505b949350505050565b606060405180602001604052806000815250905090565b6060611c91826110c9565b611cd0576040517f08c379a0000000000000000000000000000000000000000000000000000000008152600401611cc790612fb6565b60405180910390fd5b6000611cda611c6f565b90506000815111611cfa5760405180602001604052806000815250611d25565b80611d0484611ebe565b604051602001611d15929190612c6e565b6040516020818303038152906040525b915050919050565b60007f01ffc9a7000000000000000000000000000000000000000000000000000000007bffffffffffffffffffffffffffffffffffffffffffffffffffffffff1916827bffffffffffffffffffffffffffffffffffffffffffffffffffffffff1916149050919050565b611da283838361206b565b600073ffffffffffffffffffffffffffffffffffffffff168373ffffffffffffffffffffffffffffffffffffffff161415611de557611de081612070565b611e24565b8173ffffffffffffffffffffffffffffffffffffffff168373ffffffffffffffffffffffffffffffffffffffff1614611e2357611e2283826120b9565b5b5b600073ffffffffffffffffffffffffffffffffffffffff168273ffffffffffffffffffffffffffffffffffffffff161415611e6757611e6281612226565b611ea6565b8273ffffffffffffffffffffffffffffffffffffffff168273ffffffffffffffffffffffffffffffffffffffff1614611ea557611ea48282612369565b5b5b505050565b600080823b905060008111915050919050565b60606000821415611f06576040518060400160405280600181526020017f30000000000000000000000000000000000000000000000000000000000000008152509050612066565b600082905060005b60008214611f38578080611f2190613328565b915050600a82611f3191906131aa565b9150611f0e565b60008167ffffffffffffffff811115611f7a577f4e487b7100000000000000000000000000000000000000000000000000000000600052604160045260246000fd5b6040519080825280601f01601f191660200182016040528015611fac5781602001600182028036833780820191505090505b5090505b6000851461205f57600182611fc591906131db565b9150600a85611fd49190613371565b6030611fe09190613154565b60f81b81838151811061201c577f4e487b7100000000000000000000000000000000000000000000000000000000600052603260045260246000fd5b60200101907effffffffffffffffffffffffffffffffffffffffffffffffffffffffffffff1916908160001a905350600a8561205891906131aa565b9450611fb0565b8093505050505b919050565b505050565b600980549050600a600083815260200190815260200160002081905550600981908060018154018082558091505060019003906000526020600020016000909190919091505550565b600060016120c684610917565b6120d091906131db565b90506000600860008481526020019081526020016000205490508181146121b5576000600760008673ffffffffffffffffffffffffffffffffffffffff1673ffffffffffffffffffffffffffffffffffffffff168152602001908152602001600020600084815260200190815260200160002054905080600760008773ffffffffffffffffffffffffffffffffffffffff1673ffffffffffffffffffffffffffffffffffffffff168152602001908152602001600020600084815260200190815260200160002081905550816008600083815260200190815260200160002081905550505b6008600084815260200190815260200160002060009055600760008573ffffffffffffffffffffffffffffffffffffffff1673ffffffffffffffffffffffffffffffffffffffff16815260200190815260200160002060008381526020019081526020016000206000905550505050565b6000600160098054905061223a91906131db565b90506000600a6000848152602001908152602001600020549050600060098381548110612290577f4e487b7100000000000000000000000000000000000000000000000000000000600052603260045260246000fd5b9060005260206000200154905080600983815481106122d8577f4e487b7100000000000000000000000000000000000000000000000000000000600052603260045260246000fd5b906000526020600020018190555081600a600083815260200190815260200160002081905550600a600085815260200190815260200160002060009055600980548061234d577f4e487b7100000000000000000000000000000000000000000000000000000000600052603160045260246000fd5b6001900381819060005260206000200160009055905550505050565b600061237483610917565b905081600760008573ffffffffffffffffffffffffffffffffffffffff1673ffffffffffffffffffffffffffffffffffffffff168152602001908152602001600020600083815260200190815260200160002081905550806008600084815260200190815260200160002081905550505050565b8280546123f4906132c5565b90600052602060002090601f016020900481019282612416576000855561245d565b82601f1061242f57805160ff191683800117855561245d565b8280016001018555821561245d579182015b8281111561245c578251825591602001919060010190612441565b5b50905061246a919061246e565b5090565b5b8082111561248757600081600090555060010161246f565b5090565b600061249e61249984613076565b613051565b9050828152602081018484840111156124b657600080fd5b6124c1848285613283565b509392505050565b60006124dc6124d7846130a7565b613051565b9050828152602081018484840111156124f457600080fd5b6124ff848285613283565b509392505050565b60008135905061251681613a2c565b92915050565b60008135905061252b81613a43565b92915050565b60008135905061254081613a5a565b92915050565b60008151905061255581613a5a565b92915050565b600082601f83011261256c57600080fd5b813561257c84826020860161248b565b91505092915050565b600082601f83011261259657600080fd5b81356125a68482602086016124c9565b91505092915050565b6000813590506125be81613a71565b92915050565b6000602082840312156125d657600080fd5b60006125e484828501612507565b91505092915050565b6000806040838503121561260057600080fd5b600061260e85828601612507565b925050602061261f85828601612507565b9150509250929050565b60008060006060848603121561263e57600080fd5b600061264c86828701612507565b935050602061265d86828701612507565b925050604061266e868287016125af565b9150509250925092565b6000806000806080858703121561268e57600080fd5b600061269c87828801612507565b94505060206126ad87828801612507565b93505060406126be878288016125af565b925050606085013567ffffffffffffffff8111156126db57600080fd5b6126e78782880161255b565b91505092959194509250565b6000806040838503121561270657600080fd5b600061271485828601612507565b92505060206127258582860161251c565b9150509250929050565b6000806040838503121561274257600080fd5b600061275085828601612507565b925050602083013567ffffffffffffffff81111561276d57600080fd5b61277985828601612585565b9150509250929050565b6000806040838503121561279657600080fd5b60006127a485828601612507565b92505060206127b5858286016125af565b9150509250929050565b6000602082840312156127d157600080fd5b60006127df84828501612531565b91505092915050565b6000602082840312156127fa57600080fd5b600061280884828501612546565b91505092915050565b60006020828403121561282357600080fd5b6000612831848285016125af565b91505092915050565b60006128468383612c50565b60208301905092915050565b61285b8161320f565b82525050565b600061286c826130e8565b6128768185613116565b9350612881836130d8565b8060005b838110156128b2578151612899888261283a565b97506128a483613109565b925050600181019050612885565b5085935050505092915050565b6128c881613221565b82525050565b60006128d9826130f3565b6128e38185613127565b93506128f3818560208601613292565b6128fc8161345e565b840191505092915050565b6000612912826130fe565b61291c8185613138565b935061292c818560208601613292565b6129358161345e565b840191505092915050565b600061294b826130fe565b6129558185613149565b9350612965818560208601613292565b80840191505092915050565b600061297e602b83613138565b91506129898261346f565b604082019050919050565b60006129a1603283613138565b91506129ac826134be565b604082019050919050565b60006129c4602683613138565b91506129cf8261350d565b604082019050919050565b60006129e7601c83613138565b91506129f28261355c565b602082019050919050565b6000612a0a602483613138565b9150612a1582613585565b604082019050919050565b6000612a2d601983613138565b9150612a38826135d4565b602082019050919050565b6000612a50602c83613138565b9150612a5b826135fd565b604082019050919050565b6000612a73603883613138565b9150612a7e8261364c565b604082019050919050565b6000612a96602a83613138565b9150612aa18261369b565b604082019050919050565b6000612ab9602983613138565b9150612ac4826136ea565b604082019050919050565b6000612adc602e83613138565b9150612ae782613739565b604082019050919050565b6000612aff602083613138565b9150612b0a82613788565b602082019050919050565b6000612b22601583613138565b9150612b2d826137b1565b602082019050919050565b6000612b45603183613138565b9150612b50826137da565b604082019050919050565b6000612b68602c83613138565b9150612b7382613829565b604082019050919050565b6000612b8b602083613138565b9150612b9682613878565b602082019050919050565b6000612bae602983613138565b9150612bb9826138a1565b604082019050919050565b6000612bd1602f83613138565b9150612bdc826138f0565b604082019050919050565b6000612bf4602183613138565b9150612bff8261393f565b604082019050919050565b6000612c17603183613138565b9150612c228261398e565b604082019050919050565b6000612c3a602c83613138565b9150612c45826139dd565b604082019050919050565b612c5981613279565b82525050565b612c6881613279565b82525050565b6000612c7a8285612940565b9150612c868284612940565b91508190509392505050565b6000602082019050612ca76000830184612852565b92915050565b6000608082019050612cc26000830187612852565b612ccf6020830186612852565b612cdc6040830185612c5f565b8181036060830152612cee81846128ce565b905095945050505050565b6000606082019050612d0e6000830186612852565b612d1b6020830185612c5f565b8181036040830152612d2d8184612907565b9050949350505050565b60006020820190508181036000830152612d518184612861565b905092915050565b6000602082019050612d6e60008301846128bf565b92915050565b60006020820190508181036000830152612d8e8184612907565b905092915050565b60006020820190508181036000830152612daf81612971565b9050919050565b60006020820190508181036000830152612dcf81612994565b9050919050565b60006020820190508181036000830152612def816129b7565b9050919050565b60006020820190508181036000830152612e0f816129da565b9050919050565b60006020820190508181036000830152612e2f816129fd565b9050919050565b60006020820190508181036000830152612e4f81612a20565b9050919050565b60006020820190508181036000830152612e6f81612a43565b9050919050565b60006020820190508181036000830152612e8f81612a66565b9050919050565b60006020820190508181036000830152612eaf81612a89565b9050919050565b60006020820190508181036000830152612ecf81612aac565b9050919050565b60006020820190508181036000830152612eef81612acf565b9050919050565b60006020820190508181036000830152612f0f81612af2565b9050919050565b60006020820190508181036000830152612f2f81612b15565b9050919050565b60006020820190508181036000830152612f4f81612b38565b9050919050565b60006020820190508181036000830152612f6f81612b5b565b9050919050565b60006020820190508181036000830152612f8f81612b7e565b9050919050565b60006020820190508181036000830152612faf81612ba1565b9050919050565b60006020820190508181036000830152612fcf81612bc4565b9050919050565b60006020820190508181036000830152612fef81612be7565b9050919050565b6000602082019050818103600083015261300f81612c0a565b9050919050565b6000602082019050818103600083015261302f81612c2d565b9050919050565b600060208201905061304b6000830184612c5f565b92915050565b600061305b61306c565b905061306782826132f7565b919050565b6000604051905090565b600067ffffffffffffffff8211156130915761309061342f565b5b61309a8261345e565b9050602081019050919050565b600067ffffffffffffffff8211156130c2576130c161342f565b5b6130cb8261345e565b9050602081019050919050565b6000819050602082019050919050565b600081519050919050565b600081519050919050565b600081519050919050565b6000602082019050919050565b600082825260208201905092915050565b600082825260208201905092915050565b600082825260208201905092915050565b600081905092915050565b600061315f82613279565b915061316a83613279565b9250827fffffffffffffffffffffffffffffffffffffffffffffffffffffffffffffffff0382111561319f5761319e6133a2565b5b828201905092915050565b60006131b582613279565b91506131c083613279565b9250826131d0576131cf6133d1565b5b828204905092915050565b60006131e682613279565b91506131f183613279565b925082821015613204576132036133a2565b5b828203905092915050565b600061321a82613259565b9050919050565b60008115159050919050565b60007fffffffff0000000000000000000000000000000000000000000000000000000082169050919050565b600073ffffffffffffffffffffffffffffffffffffffff82169050919050565b6000819050919050565b82818337600083830152505050565b60005b838110156132b0578082015181840152602081019050613295565b838111156132bf576000848401525b50505050565b600060028204905060018216806132dd57607f821691505b602082108114156132f1576132f0613400565b5b50919050565b6133008261345e565b810181811067ffffffffffffffff8211171561331f5761331e61342f565b5b80604052505050565b600061333382613279565b91507fffffffffffffffffffffffffffffffffffffffffffffffffffffffffffffffff821415613366576133656133a2565b5b600182019050919050565b600061337c82613279565b915061338783613279565b925082613397576133966133d1565b5b828206905092915050565b7f4e487b7100000000000000000000000000000000000000000000000000000000600052601160045260246000fd5b7f4e487b7100000000000000000000000000000000000000000000000000000000600052601260045260246000fd5b7f4e487b7100000000000000000000000000000000000000000000000000000000600052602260045260246000fd5b7f4e487b7100000000000000000000000000000000000000000000000000000000600052604160045260246000fd5b6000601f19601f8301169050919050565b7f455243373231456e756d657261626c653a206f776e657220696e646578206f7560008201527f74206f6620626f756e6473000000000000000000000000000000000000000000602082015250565b7f4552433732313a207472616e7366657220746f206e6f6e20455243373231526560008201527f63656976657220696d706c656d656e7465720000000000000000000000000000602082015250565b7f4f776e61626c653a206e6577206f776e657220697320746865207a65726f206160008201527f6464726573730000000000000000000000000000000000000000000000000000602082015250565b7f4552433732313a20746f6b656e20616c7265616479206d696e74656400000000600082015250565b7f4552433732313a207472616e7366657220746f20746865207a65726f2061646460008201527f7265737300000000000000000000000000000000000000000000000000000000602082015250565b7f4552433732313a20617070726f766520746f2063616c6c657200000000000000600082015250565b7f4552433732313a206f70657261746f7220717565727920666f72206e6f6e657860008201527f697374656e7420746f6b656e0000000000000000000000000000000000000000602082015250565b7f4552433732313a20617070726f76652063616c6c6572206973206e6f74206f7760008201527f6e6572206e6f7220617070726f76656420666f7220616c6c0000000000000000602082015250565b7f4552433732313a2062616c616e636520717565727920666f7220746865207a6560008201527f726f206164647265737300000000000000000000000000000000000000000000602082015250565b7f4552433732313a206f776e657220717565727920666f72206e6f6e657869737460008201527f656e7420746f6b656e0000000000000000000000000000000000000000000000602082015250565b7f45524337323155524953746f726167653a2055524920736574206f66206e6f6e60008201527f6578697374656e7420746f6b656e000000000000000000000000000000000000602082015250565b7f4552433732313a206d696e7420746f20746865207a65726f2061646472657373600082015250565b7f546f6b656e20646f6573206e6f742065786973742e0000000000000000000000600082015250565b7f45524337323155524953746f726167653a2055524920717565727920666f722060008201527f6e6f6e6578697374656e7420746f6b656e000000000000000000000000000000602082015250565b7f4552433732313a20617070726f76656420717565727920666f72206e6f6e657860008201527f697374656e7420746f6b656e0000000000000000000000000000000000000000602082015250565b7f4f776e61626c653a2063616c6c6572206973206e6f7420746865206f776e6572600082015250565b7f4552433732313a207472616e73666572206f6620746f6b656e2074686174206960008201527f73206e6f74206f776e0000000000000000000000000000000000000000000000602082015250565b7f4552433732314d657461646174613a2055524920717565727920666f72206e6f60008201527f6e6578697374656e7420746f6b656e0000000000000000000000000000000000602082015250565b7f4552433732313a20617070726f76616c20746f2063757272656e74206f776e6560008201527f7200000000000000000000000000000000000000000000000000000000000000602082015250565b7f4552433732313a207472616e736665722063616c6c6572206973206e6f74206f60008201527f776e6572206e6f7220617070726f766564000000000000000000000000000000602082015250565b7f455243373231456e756d657261626c653a20676c6f62616c20696e646578206f60008201527f7574206f6620626f756e64730000000000000000000000000000000000000000602082015250565b613a358161320f565b8114613a4057600080fd5b50565b613a4c81613221565b8114613a5757600080fd5b50565b613a638161322d565b8114613a6e57600080fd5b50565b613a7a81613279565b8114613a8557600080fd5b5056fea2646970667358221220257366bf1b09c168c63d3206dae6c790bb17355e5d58c1b32edaa5915482528564736f6c63430008010033",
  "immutableReferences": {},
  "source": "// SPDX-License-Identifier: MIT\r\npragma solidity ^0.8.1;\r\n\r\nimport \"@openzeppelin/contracts/token/ERC721/extensions/ERC721URIStorage.sol\";\r\nimport \"@openzeppelin/contracts/token/ERC721/extensions/ERC721Enumerable.sol\";\r\nimport \"@openzeppelin/contracts/access/Ownable.sol\";\r\n\r\ncontract MyNFT is ERC721URIStorage, ERC721Enumerable, Ownable {\r\n    uint256 public nextTokenId;\r\n\r\n    // NFT   \r\n    event Minted(address recipient, uint256 tokenId, string tokenURI);\r\n\r\n    constructor() ERC721(\"MyNFT\", \"MNFT\") {}\r\n\r\n    //     \r\n    function mint(address recipient, string memory _tokenURI) external {\r\n        uint256 tokenId = nextTokenId;\r\n        nextTokenId++;\r\n        _mint(recipient, tokenId);\r\n        _setTokenURI(tokenId, _tokenURI);\r\n        \r\n        //   \r\n        emit Minted(recipient, tokenId, _tokenURI);\r\n    }\r\n\r\n    //   ID   (ERC721Enumerable )\r\n    function tokensOfOwner(address owner) external view returns (uint256[] memory) {\r\n        uint256 tokenCount = balanceOf(owner);\r\n        uint256[] memory tokenIds = new uint256[](tokenCount);\r\n        for (uint256 i = 0; i < tokenCount; i++) {\r\n            tokenIds[i] = tokenOfOwnerByIndex(owner, i);\r\n        }\r\n        return tokenIds;\r\n    }\r\n\r\n    //  URI  \r\n    function tokenURI(uint256 tokenId) public view override(ERC721, ERC721URIStorage) returns (string memory) {\r\n        require(_exists(tokenId), \"Token does not exist.\");\r\n        return super.tokenURI(tokenId);\r\n    }\r\n\r\n    // _beforeTokenTransfer   (ERC721  ERC721Enumerable )\r\n    function _beforeTokenTransfer(address from, address to, uint256 tokenId) internal virtual override(ERC721, ERC721Enumerable) {\r\n        super._beforeTokenTransfer(from, to, tokenId);\r\n    }\r\n\r\n    // supportsInterface  (ERC721  ERC721Enumerable )\r\n    function supportsInterface(bytes4 interfaceId) public view virtual override(ERC721, ERC721Enumerable) returns (bool) {\r\n        return super.supportsInterface(interfaceId);\r\n    }\r\n\r\n    // ERC721URIStorage _burn \r\n    function _burn(uint256 tokenId) internal virtual override(ERC721, ERC721URIStorage) {\r\n        super._burn(tokenId);\r\n    }\r\n}\r\n",
  "sourcePath": "C:\\Users\\SSAFY\\Desktop\\Front\\S11P31C203\\blockchain\\NFT\\contracts\\MyNFT.sol",
  "compiler": {
    "name": "solc",
    "version": "0.8.1+commit.df193b15.Emscripten.clang"
  },
  "schemaVersion": "3.4.16",
  "updatedAt": "2024-11-18T04:24:12.605Z",
  "networkType": "ethereum",
  "devdoc": {
    "kind": "dev",
    "methods": {
      "approve(address,uint256)": {
        "details": "See {IERC721-approve}."
      },
      "balanceOf(address)": {
        "details": "See {IERC721-balanceOf}."
      },
      "getApproved(uint256)": {
        "details": "See {IERC721-getApproved}."
      },
      "isApprovedForAll(address,address)": {
        "details": "See {IERC721-isApprovedForAll}."
      },
      "name()": {
        "details": "See {IERC721Metadata-name}."
      },
      "owner()": {
        "details": "Returns the address of the current owner."
      },
      "ownerOf(uint256)": {
        "details": "See {IERC721-ownerOf}."
      },
      "renounceOwnership()": {
        "details": "Leaves the contract without owner. It will not be possible to call `onlyOwner` functions anymore. Can only be called by the current owner. NOTE: Renouncing ownership will leave the contract without an owner, thereby removing any functionality that is only available to the owner."
      },
      "safeTransferFrom(address,address,uint256)": {
        "details": "See {IERC721-safeTransferFrom}."
      },
      "safeTransferFrom(address,address,uint256,bytes)": {
        "details": "See {IERC721-safeTransferFrom}."
      },
      "setApprovalForAll(address,bool)": {
        "details": "See {IERC721-setApprovalForAll}."
      },
      "symbol()": {
        "details": "See {IERC721Metadata-symbol}."
      },
      "tokenByIndex(uint256)": {
        "details": "See {IERC721Enumerable-tokenByIndex}."
      },
      "tokenOfOwnerByIndex(address,uint256)": {
        "details": "See {IERC721Enumerable-tokenOfOwnerByIndex}."
      },
      "totalSupply()": {
        "details": "See {IERC721Enumerable-totalSupply}."
      },
      "transferFrom(address,address,uint256)": {
        "details": "See {IERC721-transferFrom}."
      },
      "transferOwnership(address)": {
        "details": "Transfers ownership of the contract to a new account (`newOwner`). Can only be called by the current owner."
      }
    },
    "version": 1
  },
  "userdoc": {
    "kind": "user",
    "methods": {},
    "version": 1
  }
}